{
	"data": {
		"bytecode": {
			"linkReferences": {},
			"object": "608060405234801561001057600080fd5b50610307806100206000396000f3fe608060405234801561001057600080fd5b506004361061004c5760003560e01c80635f404c691461005157806365a6d5a31461008d57806380212337146100ae578063e3306a6f146100de575b600080fd5b61007761005f366004610251565b60009081526003602052604090206007015460ff1690565b604051610084919061026a565b60405180910390f35b6100a061009b366004610251565b6100eb565b604051908152602001610084565b6100c16100bc366004610251565b61012b565b604080519283526001600160a01b03909116602083015201610084565b6002546100779060ff1681565b60006100f6826101aa565b6000828152600360205260409020600681015481548110610119576101196102bb565b90600052602060002001549050919050565b600081815260036020526040812060068101548154839291908110610152576101526102bb565b600091825260208083209091015485835260039091526040909120600681015460019091018054909190811061018a5761018a6102bb565b60009182526020909120015490946001600160a01b039091169350915050565b6000805b60008381526003602052604090205481101561024c5760008381526003602052604090208054829081106101e4576101e46102bb565b906000526020600020015482101561023a576000838152600360205260409020805482908110610216576102166102bb565b60009182526020808320909101548583526003909152604090912060060182905591505b8061024481610292565b9150506101ae565b505050565b60006020828403121561026357600080fd5b5035919050565b602081016004831061028c57634e487b7160e01b600052602160045260246000fd5b91905290565b60006000198214156102b457634e487b7160e01b600052601160045260246000fd5b5060010190565b634e487b7160e01b600052603260045260246000fdfea2646970667358221220055ca63d904814927a0debf6362b007e52373520ca6f617493535d8df9a5f54e64736f6c63430008070033",
			"opcodes": "PUSH1 0x80 PUSH1 0x40 MSTORE CALLVALUE DUP1 ISZERO PUSH2 0x10 JUMPI PUSH1 0x0 DUP1 REVERT JUMPDEST POP PUSH2 0x307 DUP1 PUSH2 0x20 PUSH1 0x0 CODECOPY PUSH1 0x0 RETURN INVALID PUSH1 0x80 PUSH1 0x40 MSTORE CALLVALUE DUP1 ISZERO PUSH2 0x10 JUMPI PUSH1 0x0 DUP1 REVERT JUMPDEST POP PUSH1 0x4 CALLDATASIZE LT PUSH2 0x4C JUMPI PUSH1 0x0 CALLDATALOAD PUSH1 0xE0 SHR DUP1 PUSH4 0x5F404C69 EQ PUSH2 0x51 JUMPI DUP1 PUSH4 0x65A6D5A3 EQ PUSH2 0x8D JUMPI DUP1 PUSH4 0x80212337 EQ PUSH2 0xAE JUMPI DUP1 PUSH4 0xE3306A6F EQ PUSH2 0xDE JUMPI JUMPDEST PUSH1 0x0 DUP1 REVERT JUMPDEST PUSH2 0x77 PUSH2 0x5F CALLDATASIZE PUSH1 0x4 PUSH2 0x251 JUMP JUMPDEST PUSH1 0x0 SWAP1 DUP2 MSTORE PUSH1 0x3 PUSH1 0x20 MSTORE PUSH1 0x40 SWAP1 KECCAK256 PUSH1 0x7 ADD SLOAD PUSH1 0xFF AND SWAP1 JUMP JUMPDEST PUSH1 0x40 MLOAD PUSH2 0x84 SWAP2 SWAP1 PUSH2 0x26A JUMP JUMPDEST PUSH1 0x40 MLOAD DUP1 SWAP2 SUB SWAP1 RETURN JUMPDEST PUSH2 0xA0 PUSH2 0x9B CALLDATASIZE PUSH1 0x4 PUSH2 0x251 JUMP JUMPDEST PUSH2 0xEB JUMP JUMPDEST PUSH1 0x40 MLOAD SWAP1 DUP2 MSTORE PUSH1 0x20 ADD PUSH2 0x84 JUMP JUMPDEST PUSH2 0xC1 PUSH2 0xBC CALLDATASIZE PUSH1 0x4 PUSH2 0x251 JUMP JUMPDEST PUSH2 0x12B JUMP JUMPDEST PUSH1 0x40 DUP1 MLOAD SWAP3 DUP4 MSTORE PUSH1 0x1 PUSH1 0x1 PUSH1 0xA0 SHL SUB SWAP1 SWAP2 AND PUSH1 0x20 DUP4 ADD MSTORE ADD PUSH2 0x84 JUMP JUMPDEST PUSH1 0x2 SLOAD PUSH2 0x77 SWAP1 PUSH1 0xFF AND DUP2 JUMP JUMPDEST PUSH1 0x0 PUSH2 0xF6 DUP3 PUSH2 0x1AA JUMP JUMPDEST PUSH1 0x0 DUP3 DUP2 MSTORE PUSH1 0x3 PUSH1 0x20 MSTORE PUSH1 0x40 SWAP1 KECCAK256 PUSH1 0x6 DUP2 ADD SLOAD DUP2 SLOAD DUP2 LT PUSH2 0x119 JUMPI PUSH2 0x119 PUSH2 0x2BB JUMP JUMPDEST SWAP1 PUSH1 0x0 MSTORE PUSH1 0x20 PUSH1 0x0 KECCAK256 ADD SLOAD SWAP1 POP SWAP2 SWAP1 POP JUMP JUMPDEST PUSH1 0x0 DUP2 DUP2 MSTORE PUSH1 0x3 PUSH1 0x20 MSTORE PUSH1 0x40 DUP2 KECCAK256 PUSH1 0x6 DUP2 ADD SLOAD DUP2 SLOAD DUP4 SWAP3 SWAP2 SWAP1 DUP2 LT PUSH2 0x152 JUMPI PUSH2 0x152 PUSH2 0x2BB JUMP JUMPDEST PUSH1 0x0 SWAP2 DUP3 MSTORE PUSH1 0x20 DUP1 DUP4 KECCAK256 SWAP1 SWAP2 ADD SLOAD DUP6 DUP4 MSTORE PUSH1 0x3 SWAP1 SWAP2 MSTORE PUSH1 0x40 SWAP1 SWAP2 KECCAK256 PUSH1 0x6 DUP2 ADD SLOAD PUSH1 0x1 SWAP1 SWAP2 ADD DUP1 SLOAD SWAP1 SWAP2 SWAP1 DUP2 LT PUSH2 0x18A JUMPI PUSH2 0x18A PUSH2 0x2BB JUMP JUMPDEST PUSH1 0x0 SWAP2 DUP3 MSTORE PUSH1 0x20 SWAP1 SWAP2 KECCAK256 ADD SLOAD SWAP1 SWAP5 PUSH1 0x1 PUSH1 0x1 PUSH1 0xA0 SHL SUB SWAP1 SWAP2 AND SWAP4 POP SWAP2 POP POP JUMP JUMPDEST PUSH1 0x0 DUP1 JUMPDEST PUSH1 0x0 DUP4 DUP2 MSTORE PUSH1 0x3 PUSH1 0x20 MSTORE PUSH1 0x40 SWAP1 KECCAK256 SLOAD DUP2 LT ISZERO PUSH2 0x24C JUMPI PUSH1 0x0 DUP4 DUP2 MSTORE PUSH1 0x3 PUSH1 0x20 MSTORE PUSH1 0x40 SWAP1 KECCAK256 DUP1 SLOAD DUP3 SWAP1 DUP2 LT PUSH2 0x1E4 JUMPI PUSH2 0x1E4 PUSH2 0x2BB JUMP JUMPDEST SWAP1 PUSH1 0x0 MSTORE PUSH1 0x20 PUSH1 0x0 KECCAK256 ADD SLOAD DUP3 LT ISZERO PUSH2 0x23A JUMPI PUSH1 0x0 DUP4 DUP2 MSTORE PUSH1 0x3 PUSH1 0x20 MSTORE PUSH1 0x40 SWAP1 KECCAK256 DUP1 SLOAD DUP3 SWAP1 DUP2 LT PUSH2 0x216 JUMPI PUSH2 0x216 PUSH2 0x2BB JUMP JUMPDEST PUSH1 0x0 SWAP2 DUP3 MSTORE PUSH1 0x20 DUP1 DUP4 KECCAK256 SWAP1 SWAP2 ADD SLOAD DUP6 DUP4 MSTORE PUSH1 0x3 SWAP1 SWAP2 MSTORE PUSH1 0x40 SWAP1 SWAP2 KECCAK256 PUSH1 0x6 ADD DUP3 SWAP1 SSTORE SWAP2 POP JUMPDEST DUP1 PUSH2 0x244 DUP2 PUSH2 0x292 JUMP JUMPDEST SWAP2 POP POP PUSH2 0x1AE JUMP JUMPDEST POP POP POP JUMP JUMPDEST PUSH1 0x0 PUSH1 0x20 DUP3 DUP5 SUB SLT ISZERO PUSH2 0x263 JUMPI PUSH1 0x0 DUP1 REVERT JUMPDEST POP CALLDATALOAD SWAP2 SWAP1 POP JUMP JUMPDEST PUSH1 0x20 DUP2 ADD PUSH1 0x4 DUP4 LT PUSH2 0x28C JUMPI PUSH4 0x4E487B71 PUSH1 0xE0 SHL PUSH1 0x0 MSTORE PUSH1 0x21 PUSH1 0x4 MSTORE PUSH1 0x24 PUSH1 0x0 REVERT JUMPDEST SWAP2 SWAP1 MSTORE SWAP1 JUMP JUMPDEST PUSH1 0x0 PUSH1 0x0 NOT DUP3 EQ ISZERO PUSH2 0x2B4 JUMPI PUSH4 0x4E487B71 PUSH1 0xE0 SHL PUSH1 0x0 MSTORE PUSH1 0x11 PUSH1 0x4 MSTORE PUSH1 0x24 PUSH1 0x0 REVERT JUMPDEST POP PUSH1 0x1 ADD SWAP1 JUMP JUMPDEST PUSH4 0x4E487B71 PUSH1 0xE0 SHL PUSH1 0x0 MSTORE PUSH1 0x32 PUSH1 0x4 MSTORE PUSH1 0x24 PUSH1 0x0 REVERT INVALID LOG2 PUSH5 0x6970667358 0x22 SLT KECCAK256 SDIV 0x5C 0xA6 RETURNDATASIZE SWAP1 BASEFEE EQ SWAP3 PUSH27 0xDEBF6362B007E52373520CA6F617493535D8DF9A5F54E64736F6C PUSH4 0x43000807 STOP CALLER "
		},
		"gasEstimates": {
			"creation": {
				"codeDepositCost": "155000",
				"executionCost": "202",
				"totalCost": "155202"
			},
			"external": {
				"CheckNftStatus(uint256)": "2475",
				"CurrentStatus()": "2395",
				"GetHighestIndexvalue(uint256)": "13345",
				"GetHighestValueofArray(uint256)": "infinite"
			},
			"internal": {
				"_addAuctionBid(uint256,uint256)": "infinite",
				"_addOpenBid(uint256,uint256)": "infinite",
				"_extendAuctionTime(uint256,uint256)": "infinite",
				"_getIndexOfHighestBid(uint256)": "infinite",
				"_placeNftForBids(uint256)": "infinite",
				"_pushBidingValues(address,uint256,uint256)": "infinite",
				"_putNftForFixedPrice(uint256,uint256)": "infinite",
				"_putNftForTimedAuction(uint256,uint256,uint256,uint256)": "infinite",
				"_releaseBiddingValue(uint256)": "infinite",
				"_removeFromSale(uint256)": "infinite",
				"_updateBiddingMapping(address,uint256)": "infinite"
			}
		},
		"methodIdentifiers": {
			"CheckNftStatus(uint256)": "5f404c69",
			"CurrentStatus()": "e3306a6f",
			"GetHighestIndexvalue(uint256)": "80212337",
			"GetHighestValueofArray(uint256)": "65a6d5a3"
		}
	},
	"abi": [
		{
			"anonymous": false,
			"inputs": [
				{
					"indexed": false,
					"internalType": "uint256",
					"name": "",
					"type": "uint256"
				},
				{
					"indexed": false,
					"internalType": "string",
					"name": "",
					"type": "string"
				}
			],
			"name": "availableForBids",
			"type": "event"
		},
		{
			"anonymous": false,
			"inputs": [
				{
					"indexed": false,
					"internalType": "uint256",
					"name": "",
					"type": "uint256"
				},
				{
					"indexed": false,
					"internalType": "string",
					"name": "",
					"type": "string"
				}
			],
			"name": "removeFormSale",
			"type": "event"
		},
		{
			"inputs": [
				{
					"internalType": "uint256",
					"name": "nftId",
					"type": "uint256"
				}
			],
			"name": "CheckNftStatus",
			"outputs": [
				{
					"internalType": "enum Stage721Auction.status",
					"name": "",
					"type": "uint8"
				}
			],
			"stateMutability": "view",
			"type": "function"
		},
		{
			"inputs": [],
			"name": "CurrentStatus",
			"outputs": [
				{
					"internalType": "enum Stage721Auction.status",
					"name": "",
					"type": "uint8"
				}
			],
			"stateMutability": "view",
			"type": "function"
		},
		{
			"inputs": [
				{
					"internalType": "uint256",
					"name": "nftId",
					"type": "uint256"
				}
			],
			"name": "GetHighestIndexvalue",
			"outputs": [
				{
					"internalType": "uint256",
					"name": "",
					"type": "uint256"
				},
				{
					"internalType": "address",
					"name": "",
					"type": "address"
				}
			],
			"stateMutability": "view",
			"type": "function"
		},
		{
			"inputs": [
				{
					"internalType": "uint256",
					"name": "nftId",
					"type": "uint256"
				}
			],
			"name": "GetHighestValueofArray",
			"outputs": [
				{
					"internalType": "uint256",
					"name": "",
					"type": "uint256"
				}
			],
			"stateMutability": "nonpayable",
			"type": "function"
		}
	]
}