{
	"data": {
		"bytecode": {
			"linkReferences": {},
			"object": "608060405234801561001057600080fd5b50610123806100206000396000f3fe6080604052348015600f57600080fd5b506004361060325760003560e01c806367c510c9146037578063e3306a6f146084575b600080fd5b607060423660046090565b6001600160a01b03919091166000908152600160209081526040808320938352929052206009015460ff1690565b604051607b919060c6565b60405180910390f35b60005460709060ff1681565b6000806040838503121560a257600080fd5b82356001600160a01b038116811460b857600080fd5b946020939093013593505050565b602081016004831060e757634e487b7160e01b600052602160045260246000fd5b9190529056fea2646970667358221220fe45b0098a4d0d06410cf9a19e7572f9da63a9254218c52f71d1ac45de15a18f64736f6c63430008070033",
			"opcodes": "PUSH1 0x80 PUSH1 0x40 MSTORE CALLVALUE DUP1 ISZERO PUSH2 0x10 JUMPI PUSH1 0x0 DUP1 REVERT JUMPDEST POP PUSH2 0x123 DUP1 PUSH2 0x20 PUSH1 0x0 CODECOPY PUSH1 0x0 RETURN INVALID PUSH1 0x80 PUSH1 0x40 MSTORE CALLVALUE DUP1 ISZERO PUSH1 0xF JUMPI PUSH1 0x0 DUP1 REVERT JUMPDEST POP PUSH1 0x4 CALLDATASIZE LT PUSH1 0x32 JUMPI PUSH1 0x0 CALLDATALOAD PUSH1 0xE0 SHR DUP1 PUSH4 0x67C510C9 EQ PUSH1 0x37 JUMPI DUP1 PUSH4 0xE3306A6F EQ PUSH1 0x84 JUMPI JUMPDEST PUSH1 0x0 DUP1 REVERT JUMPDEST PUSH1 0x70 PUSH1 0x42 CALLDATASIZE PUSH1 0x4 PUSH1 0x90 JUMP JUMPDEST PUSH1 0x1 PUSH1 0x1 PUSH1 0xA0 SHL SUB SWAP2 SWAP1 SWAP2 AND PUSH1 0x0 SWAP1 DUP2 MSTORE PUSH1 0x1 PUSH1 0x20 SWAP1 DUP2 MSTORE PUSH1 0x40 DUP1 DUP4 KECCAK256 SWAP4 DUP4 MSTORE SWAP3 SWAP1 MSTORE KECCAK256 PUSH1 0x9 ADD SLOAD PUSH1 0xFF AND SWAP1 JUMP JUMPDEST PUSH1 0x40 MLOAD PUSH1 0x7B SWAP2 SWAP1 PUSH1 0xC6 JUMP JUMPDEST PUSH1 0x40 MLOAD DUP1 SWAP2 SUB SWAP1 RETURN JUMPDEST PUSH1 0x0 SLOAD PUSH1 0x70 SWAP1 PUSH1 0xFF AND DUP2 JUMP JUMPDEST PUSH1 0x0 DUP1 PUSH1 0x40 DUP4 DUP6 SUB SLT ISZERO PUSH1 0xA2 JUMPI PUSH1 0x0 DUP1 REVERT JUMPDEST DUP3 CALLDATALOAD PUSH1 0x1 PUSH1 0x1 PUSH1 0xA0 SHL SUB DUP2 AND DUP2 EQ PUSH1 0xB8 JUMPI PUSH1 0x0 DUP1 REVERT JUMPDEST SWAP5 PUSH1 0x20 SWAP4 SWAP1 SWAP4 ADD CALLDATALOAD SWAP4 POP POP POP JUMP JUMPDEST PUSH1 0x20 DUP2 ADD PUSH1 0x4 DUP4 LT PUSH1 0xE7 JUMPI PUSH4 0x4E487B71 PUSH1 0xE0 SHL PUSH1 0x0 MSTORE PUSH1 0x21 PUSH1 0x4 MSTORE PUSH1 0x24 PUSH1 0x0 REVERT JUMPDEST SWAP2 SWAP1 MSTORE SWAP1 JUMP INVALID LOG2 PUSH5 0x6970667358 0x22 SLT KECCAK256 INVALID GASLIMIT 0xB0 MULMOD DUP11 0x4D 0xD MOD COINBASE 0xC 0xF9 LOG1 SWAP15 PUSH22 0x72F9DA63A9254218C52F71D1AC45DE15A18F64736F6C PUSH4 0x43000807 STOP CALLER "
		},
		"gasEstimates": {
			"creation": {
				"codeDepositCost": "58200",
				"executionCost": "111",
				"totalCost": "58311"
			},
			"external": {
				"CheckNftStatus(address,uint256)": "2638",
				"CurrentStatus()": "2351"
			},
			"internal": {
				"_placeNftForBids(address,uint256)": "infinite",
				"_placeNftForFixedPrice(address,uint256,uint256)": "infinite",
				"_pushBidingValues(address,address,uint256,uint256,uint256)": "infinite",
				"_removeFromSale(address,uint256)": "infinite"
			}
		},
		"methodIdentifiers": {
			"CheckNftStatus(address,uint256)": "67c510c9",
			"CurrentStatus()": "e3306a6f"
		}
	},
	"abi": [
		{
			"anonymous": false,
			"inputs": [
				{
					"indexed": false,
					"internalType": "uint256",
					"name": "",
					"type": "uint256"
				},
				{
					"indexed": false,
					"internalType": "string",
					"name": "",
					"type": "string"
				}
			],
			"name": "availableForBids",
			"type": "event"
		},
		{
			"anonymous": false,
			"inputs": [
				{
					"indexed": false,
					"internalType": "uint256",
					"name": "",
					"type": "uint256"
				},
				{
					"indexed": false,
					"internalType": "string",
					"name": "",
					"type": "string"
				}
			],
			"name": "removeFormSale",
			"type": "event"
		},
		{
			"inputs": [
				{
					"internalType": "address",
					"name": "nftOwner",
					"type": "address"
				},
				{
					"internalType": "uint256",
					"name": "nftId",
					"type": "uint256"
				}
			],
			"name": "CheckNftStatus",
			"outputs": [
				{
					"internalType": "enum StageNft1155Auction.status",
					"name": "",
					"type": "uint8"
				}
			],
			"stateMutability": "view",
			"type": "function"
		},
		{
			"inputs": [],
			"name": "CurrentStatus",
			"outputs": [
				{
					"internalType": "enum StageNft1155Auction.status",
					"name": "",
					"type": "uint8"
				}
			],
			"stateMutability": "view",
			"type": "function"
		}
	]
}